:020000021000EC
:10B000000080002039B1010079B101007BB101005D
:10B010000000000000000000000000000000000030
:10B020000000000000000000000000007DB10100F1
:10B0300000000000000000007FB1010081B10100AC
:10B0400085B1010087B1010089B1010029F001003B
:10B050008DB101000000000009F1010091B1010073
:10B0600093B1010095B1010097B1010099B10100C0
:10B070009BB101009DB101009FB10100A1B1010090
:10B08000A3B10100D1E00100A7B101000000000060
:10B0900089E10100ABB1010055D70100AFB101005A
:10B0A000B1B10100B3B101000000000000000000D8
:10B0B0000000000000000000000000000000000090
:10B0C000164B002B00D1144B9D46402292029A1A37
:10B0D000924600218B460F461348144A121A04F078
:10B0E00011FD0F4B002B00D098470E4B002B00D0CA
:10B0F00098470020002104000D000D48002802D0D0
:10B100000C4800E000BF04F0A5FC2000290001F07D
:10B110006DFB04F089FCC0460000080000800020A0
:10B12000000000000000000088670020D0720020AE
:10B1300000000000000000000948026803210A43E3
:10B1400002600849084A094B9B1A05DD002408598A
:10B15000105104349C42FADB0548804705480047FB
:10B1600024050040600C02000028002088670020B1
:10B17000B5B10100C1B00100FEE7FEE7FEE7FEE762
:10B18000FEE7FEE7FEE7FEE7FEE7FEE7FEE7FEE797
:10B19000FEE7FEE7FEE7FEE7FEE7FEE7FEE7FEE787
:10B1A000FEE7FEE7FEE7FEE7FEE7FEE7FEE7FEE777
:10B1B000FEE7FEE72D4B10B51A78012A19D12C4A6B
:10B1C0001268120715D12B4AE0241168F0220800FA
:10B1D000104021420BD128490968114209D1274961
:10B1E000274A11608021274A0902116001E03028B6
:10B1F000F1D01A78012A0DD11D490968090709D132
:10B20000F0201C4909680140402903D11A49096806
:10B21000014223D01B68DBB2012B25D1144B1B68E4
:10B220001B0721D1134B1A68F0231A40A02A04D11E
:10B23000114A12681A4203D016E0D02A14D1F7E757
:10B24000114B1A68012A03D1C022104B1A600BE07F
:10B250000F4A1A601A68012AFCD1F5E7C121802043
:10B26000C900C0054250D5E710BDC046E00F00F050
:10B27000E40F00F0E80F00F0EC0F00F0DFFF07C074
:10B2800004050040186C004000EC064014EC064039
:10B2900075930000F7B505000020EB43040001277B
:10B2A000DB1700910193AC421DDA0023AB4212DAA6
:10B2B0000099CE5C71B28C46002906DB3900E61895
:10B2C000B1430E00614671400E00D654D65C013386
:10B2D0003E408019EAE7019B00992B40C918009174
:10B2E000D2180134DFE7FEBDF0B505000020EB43C6
:10B2F000040085B0DB170293AC421EDA012600235E
:10B30000A6430196AB4212DA6F46CE5CFE73B4469A
:10B31000FE7B76B2002E01DA664601E0019F7E4098
:10B320000127D654D65CDB193E408019EAE7029B20
:10B3300001342B40C918D218DEE705B0F0BDC34375
:10B34000F0B500260700150085B0DB1701910096C7
:10B350000393009BBB4223DA0024BC4216DA019B14
:10B360001B5D5AB20292002A01DA2B5508E0032134
:10B37000200004F043FB4B425941029B4B402B55AC
:10B3800001222B5DA4181340F618E6E7039B019AEF
:10B390003B40D218ED18009B019201330093D8E78F
:10B3A000300005B0F0BDC343F0B50026070015001E
:10B3B00085B0DB17019100960393009BBB4224DA12
:10B3C0000024BC4217DA019B1B5D5AB20292002A8C
:10B3D00001DA2B5509E0009B0321181904F00EFB3C
:10B3E0004B425941029B4B402B5501222B5DA41827
:10B3F0001340F618E5E7039B019A3B40D218ED187D
:10B40000009B019201330093D7E7300005B0F0BDF7
:10B410000023F0B587B001931D00C3430700160059
:10B42000DB1702910593BD4228DA0024EB0F5B196C
:10B430005B100493BC4219DA029B1B5D5AB2039263
:10B44000002A0ADB0321200004F0F2F9049B039A8E
:10B45000C018012383435A40130001223355335D42
:10B4600001341340019AD3180193E3E7059B029A34
:10B470003B40D2180292F6180135D4E7019807B084
:10B48000F0BD0023F0B587B002930193C3430700DA
:10B490001600DB1703910593019BBB422BDA0025B5
:10B4A0002C00BC421DDA039B1B5D5AB20492002A99
:10B4B00001DA33550BE00321280004F09FFA012341
:10B4C0002B4059184B425941049B4B4033550122A4
:10B4D000335D01341340029AD3180293019BED1897
:10B4E000DFE7059B039A3B40D218F618019B0392B5
:10B4F00001330193D0E7029807B0F0BD0023F0B507
:10B5000087B002930193C34307001600DB17039132
:10B510000593019BBB4228DA00252C00BC421ADAB5
:10B52000039B1B5D5AB20492002A09DB0321280009
:10B5300004F064FA01234919049A8B435A4013001A
:10B5400001223355335D01341340029AD31802931C
:10B55000019BED18E2E7059B039A3B40D218F618D1
:10B56000019B039201330193D3E7029807B0F0BD2A
:10B570000023F0B587B001931D00C34307001600F8
:10B58000DB1703910593BD4229DA00231C000293C7
:10B59000BC421CDA039B1B5D5AB20492002A0ADBF0
:10B5A0000321029804F02AFA6319C9180123049AA6
:10B5B0008B435A40130001223355335D013413404D
:10B5C000019AD3180193029B5B190293E0E7059B54
:10B5D000039A3B40D2180392F6180135D3E701983D
:10B5E00007B0F0BDF7B5040000911000190000F09D
:10B5F0008DFA0125002309261A00AC4666430099FE
:10B600000196083167468425384201D0023301355E
:10B61000019EB71A009E013FF555052A01DC0D7009
:10B6200000E00D55013240080919082AEAD1012528
:10B630000099E600F21D8A180192E21F6243083267
:10B640008A18AC46062167468425384201D0023369
:10B6500001351570062902D1019F3D7002E0009F5F
:10B66000BF197D54400812190139ECD21800FEBDF3
:10B67000F7B505000F00161E0193072E05D904F03B
:10B68000CDF916230360002012E0404304F008FACD
:10B69000041E0DD0074BB200D35839000200280019
:10B6A0009847019B320021002800FFF79BFF2000F4
:10B6B000FEBDC04648FD0100F7B5002503000C396A
:10B6C0000C002E00023B00900193009B9E4233DA57
:10B6D000E768042F01DDBB1EED1801231E4228D0B0
:10B6E000022E26DD019B9E4223DA0321380004F05E
:10B6F00085F900291DD10331380004F099F86368F9
:10B70000984216D1A368984213D12369984210D168
:10B71000636998420DD1032E0AD0236880008342CA
:10B7200006DA009A331D9A4202DDA369984200DCD2
:10B73000283501360434C8E72800FEBDF0B5431CA7
:10B7400085B0C91843420293C343002701240393E1
:10B75000844225DA01235B1A0193019BCB1898429E
:10B760001BDD4B1E1D78029B0E78CB5C9C46039B19
:10B77000CB5C00936346009A33432B43134301226F
:10B78000534062461640009A2E4016401E43012345
:10B790001E4200D003370131DFE701310134D7E722
:10B7A000380005B0F0BDF7B501240D7801900023F5
:10B7B000254202D0013B1360230001259C00A550C7
:10B7C0000F784C190198661AB0420FDD26787E403A
:10B7D0002E4204D001339E00B550277804E09E002D
:10B7E00096193068013030600134EBE7581CFEBD1B
:10B7F000F0B501240D780023254202D0013B1360EF
:10B80000230001249D00AC500E780918844210DA00
:10B8100001270D7875403D4204D0DB199D00AF50E3
:10B820000E7804E09D0055192F6801372F60013410
:10B83000EBE7581CF0BD0000F0B5174C0E00A54416
:10B840000400FFF77BFF0023050037000193019BF5
:10B85000A3420DDA390002AA2000FFF7A4FF02A9D3
:10B86000FFF72AFF019B2D18013301933F19EEE7E3
:10B870003700BB1B9C420ADD390002AA2000FFF7FB
:10B88000B7FF02A9FFF718FF01372D18F1E72800CD
:10B89000B5239B009D44F0BD2CFDFFFF0300F0B5D8
:10B8A000434389B00600180006910792019304F003
:10B8B000F7F8041E43D0019804F0F2F80290002833
:10B8C00039D000271F4B03931F4BBA00D35806995A
:10B8D0002200300098473A00079B04902100300076
:10B8E000FFF780FE210005003000FFF7A5FF049B55
:10B8F00005905819C8235843019B0A251900C01800
:10B9000003F096FFC30F181840103238C317C01841
:10B910005840052103F08CFF4543059BED18039B20
:10B920009D4205DA019A2100029804F0CDF80395B2
:10B930000137082FC8D1200004F0BCF8029809B0E4
:10B94000F0BDC046FFFFFF7F48FD0100023B4B43B7
:10B950009A18023A8018002270B5064D0023AC18E0
:10B96000E65CC6540133052BFAD105324018192A7A
:10B97000F4D170BD700802004B439A188018002261
:10B9800070B5064D0023AC18E65CC6540133072B96
:10B99000FAD107324018312AF4D170BD38030200C1
:10B9A0000B0007211C2241434243C91810B5023144
:10B9B000034C8900A218611853684868181A10BD12
:10B9C0006C030200012330B5084A89002032541864
:10B9D000A46815682C1B844205DA01331C32292B1C
:10B9E000F5D1282000E0180030BDC0466C030200ED
:10B9F0001C235843014BC0587047C0466C030200DB
:10BA00001C235843014B1818806870476C030200D0
:10BA100070B504000D0000F0CCFF00280ED000230C
:10BA2000092D05DD1A22E90FAA424B41183AD31A13
:10BA300003206043024AC3189B00985870BDC0465B
:10BA4000E8FD010070B504000D0000F0B2FF002811
:10BA500014D00023092D05DD1A22E90FAA424B411B
:10BA6000183AD31A032201206243D318044A9B00D8
:10BA70009B5898400138032C00D1400070BDC0464F
:10BA8000E8FD0100F7B5140082005218D300072228
:10BA9000424351181C22164E50439D59F3185E68BC
:10BAA0000231144B890059181B184F6858682560DB
:10BAB000C01B002E0BD1290003F0BAFE29006060E4
:10BAC000380003F0B5FE2661A060E6600EE0AD1917
:10BAD000290003F0ADFE290001906060380003F0FA
:10BAE000A7FE019BA0600133E6602361F7BDC0465D
:10BAF00018FE01006C030200C31F0020212B02D896
:10BB0000014A9B0098587047E80702000300002094
:10BB1000072B04D8C900CB18014A9B0098587047DE
:10BB200068FD01000300F0B5013B89B00390272BAD
:10BB300001D9002016E11C23039A53438A4A9F58D7
:10BB40003C007C43200003F0ABFF01900028F0D0C4
:10BB50002200002103F0D6FF0023FC1F1A00390049
:10BB60000198FFF709FF2200002339000198FFF731
:10BB700003FF2300002239000198FFF7FDFE072292
:10BB8000C0207C43019B1919D871DB191D00013AB3
:10BB9000083D2870C871C919002AF5D107267E43CF
:10BBA000019B08329E19C0213000FD0003F0AAFF5E
:10BBB0002800019B083818180822C02103F0A2FFB2
:10BBC000E31B0693019BE21B9818C021082203F097
:10BBD00099FF09228421F01903F094FF092078438A
:10BBE000019B083818180822842103F08BFF0823D2
:10BBF0008421019A0832013B1170D219002BFAD12D
:10BC0000019B08341C1984220723013B2270E4198C
:10BC1000002BFAD10F220626019B5242063594468C
:10BC200070245D1901237E43BC4408366442634599
:10BC30000CDA1A0001210A40224399190198D2B264
:10BC40000139425401332A70ED19F0E7039B012BAF
:10BC500000D180E0454ADB009958D3185B68029117
:10BC60005B1A04930BD4781A049903F0E1FD851C48
:10BC70002B006B43042B02D0029C012606E0029BA2
:10BC800039001A000198FFF761FE2EE06B1E079342
:10BC90009E420FDA2300062239000198FFF756FE74
:10BCA0000623220039000198FFF750FE049B01365D
:10BCB000E418EBE70023029E0593059A079B934245
:10BCC00013DD0024029D079BA34209DD33002A00F7
:10BCD00039000198FFF73AFE049B0134ED18F2E7B2
:10BCE000049BF618059B0133E6E7039B062B32DD28
:10BCF0001800FFF701FF03237B43069A7826D31A27
:10BD00009C46040000237642624601999A188A18DC
:10BD10000321012525403543013915706408D219E6
:10BD20000029F6D10133062BEED13A007826012501
:10BD300001990B3A8A187642D41C1100A4460400DB
:10BD40002C4034430C70013140088C45F7D1013B45
:10BD5000D219002BF0D1019A069B944681226046AD
:10BD600063441A7209B0F0BD6C0302008C08020033
:10BD7000F0B5020001255169D368106897685468CE
:10BD80004E1C05D100214343DB195161E0183CE012
:10BD90001669B446002902D1013F556103E001391B
:10BDA000013763445161614600290DDA3900002BE7
:10BDB00028DA00239669023915619E4222D10629AC
:10BDC00020D1F91E09331DE0390083420BD1012631
:10BDD000764216619669431EB91E002E03D10629CC
:10BDE00001D1F91E083B002901DA00200DE0002BEB
:10BDF000FBDBD36043435B189160E01803787F2B33
:10BE0000B9D802E00029F4DAEFE7F0BDF7B5056A2A
:10BE100046680400B54213DA87692800390003F048
:10BE2000EDFD28000E00390003F002FDE3691A68F9
:10BE3000904201DB6269B61836019E19736817E0FB
:10BE400083680020F3189D4215DAA769AE1B3900FC
:10BE5000300003F0D3FDE369300000930B0139009B
:10BE6000019303F0E5FC019A009B94466344DB6870
:10BE70000135185C2562FEBD10B5041E0BD0C068EC
:10BE800003F018FE206903F015FEE06903F012FECE
:10BE9000200003F00FFE10BDF0B506008BB024208B
:10BEA00003F0FEFD041E00D17FE0300001F0EDF94B
:10BEB000051EE06003D1200003F0FCFD30E0317985
:10BEC000306805AAFFF7DEFD099A069F019211006E
:10BED0003A003368089D2360059B694363615A43B8
:10BEE0005D19079B8A181800684362600293A0607E
:10BEF00003F0D6FD061E206107D1E06803F0DAFDED
:10BF0000200003F0D7FD30004FE028001021A5618C
:10BF100003F07AFD051EE06104D12000FFF7ACFFBD
:10BF2000280042E0E368019300230393039B059AF2
:10BF3000934214DA019BEE606B60029B2F60AB6052
:10BF4000019A33000299380001F08AFA019B1035FA
:10BF5000DB190193029BF618039B0133E5E7089B6D
:10BF6000002B03D10023200023621EE0099B079FC2
:10BF7000029300230393039B089A9342F2DA029BF5
:10BF8000EE602B60019BAF606B60019A330039005B
:10BF9000029801F065FA029A019B9446634401936A
:10BFA000039BF61910350133E4E70BB0F0BDC3690C
:10BFB000416810B502008B4202DAC168C85C07E034
:10BFC00080680C180020A34204DA1069591A405CFA
:10BFD0000133D36110BD10B5041E0BD0C06803F04F
:10BFE00069FD206903F066FD606903F063FD2000D0
:10BFF00003F060FD10BDF7B50500202003F050FDF3
:10C00000041E49D02B6803602979180000F026FC33
:10C0100060602979286800F02BFC6368A0602979AA
:10C020002868DE0000F002FC361A2800A66101F044
:10C030002CF9061EE06004D1200003F03BFD300027
:10C040002AE0A3681800019303F02AFD071E20616F
:10C0500007D1300003F02EFD200003F02BFD380047
:10C060001AE01021012003F0CFFC051E606104D10D
:10C070002000FFF7B0FF28000EE063684660036011
:10C08000019BC760836032003B000199606801F04A
:10C09000E7F900232000E361FEBD70B506000C2027
:10C0A0000D00140003F0FCFC002802D0066045607F
:10C0B000846070BDF0B506698FB004000491002E55
:10C0C00005D003F0ABFC16230360002095E0036865
:10C0D000282BF6D80379032B04D903F09FFC1623F1
:10C0E000036089E0FFF7D8FE051E00D185E00368F4
:10C0F00018000193FFF77CFC00900198FFF712FDF8
:10C10000071E03D12800FFF7B7FEDEE7009B08906B
:10C110000793013B09930A9301235B420B930C9312
:10C120000D960296AA686B6828009B18029A9A429C
:10C130001ADAFFF76BFE082380260590039307A801
:10C14000FFF716FE002850D0059B33405A1E93413E
:10C1500002330370039B7608013B0393002BEED15F
:10C16000029B01330293DDE7FFF786FE0198FFF79C
:10C1700047FC00250600B5420ADA07A8FFF7F8FDDC
:10C18000002801D100262EE0022301350370F2E7DA
:10C19000049B02330AD1009D6D43280003F080FC0C
:10C1A0002A003900040003F08FFC10E0049A237980
:10C1B000002A05DA1A0039000098FFF76FFB04E047
:10C1C000049A39000098FFF753FA041EDAD02200CF
:10C1D00000990198FFF761FF0025061EAE4205D1C8
:10C1E000200003F067FC350000E006002800FFF7A0
:10C1F00043FE380003F05EFC30000FB0F0BDF0B538
:10C20000056991B006000691002D03D00368013B3B
:10C21000032B05D903F002FC1623036000208FE0F6
:10C220000379022BF6D8FFF7E6FE041E00D187E063
:10C230000768380000F026FB0190380000F050FB42
:10C24000051E03D12000FFF7C6FEE7E7019B0A9019
:10C250000993013B0B930C9301235B420D930E93C7
:10C2600002330F9300230293A268636820009B1897
:10C27000029A9A422BDAFFF79AFEA369079003937A
:10C28000002B04D06368029A013B9A4201D0082334
:10C2900003930023059380330493059B039A9342F1
:10C2A00012DA09A8FFF764FD00283ED0049A079B24
:10C2B00013405A1E934102330370049B5B0804939E
:10C2C000059B01330593E8E7029B0133CBE7FFF7BA
:10C2D00082FE069B02330AD1019C6443200003F0D6
:10C2E000DFFB22002900060003F0EEFB10E0069AB7
:10C2F0003379002A05DA1A002900380000F09AF98B
:10C3000004E0069A2900380000F046F9061E0ED017
:10C31000380032000199FFF7C0FE0024071EA74233
:10C3200007D1300003F0C6FB02E0070001E0070080
:10C330003C002000FFF74FFE280003F0BBFB380055
:10C3400011B0F0BD0121036910B54942002B02D0A4
:10C35000FFF755FF01E0FFF7ADFE10BD70B5060019
:10C360000D0010001900002E01D0002D04D103F0A3
:10C3700055FB1623036013E0049B002B02D000F052
:10C3800038FB01E000F01BFB041E13D033002A0031
:10C39000022100F058FC002804DA200000F051FBD4
:10C3A000002007E02000FFF7CDFF0500200000F08F
:10C3B00048FB280070BD73B504000D00160000286E
:10C3C00005D103F02BFB16230360200009E003F0E6
:10C3D00067FC0023010000932A0033002000FFF7D0
:10C3E000BDFF76BD0123F7B5C64300249C46F61772
:10C3F000844216DA65460023A543019583420ADA92
:10C40000CF5C7DB2002D01DAD75402E0019F7D4060
:10C41000D5540133F2E703003340C918D218013470
:10C42000E6E7F7BDC343F0B506001700002585B069
:10C43000DB1700910393B54222DA0024EB0F5B195E
:10C440005B100293B44213DA009B1B5D5AB2019257
:10C45000002A0ADB0321200003F0EAF9029B019A7B
:10C46000C018012383435A4013003B550134E9E7C8
:10C47000039B009A3340D2180092FF180135DAE787
:10C4800005B0F0BD0023F0B585B00093C3430600AE
:10C490001700DB1701910393009BB34222DA0025BA
:10C4A0002C00B44214DA019B1B5D5AB20292002A9E
:10C4B00009DB0321280003F0A1FA01234919029A9C
:10C4C0008B435A4013003B55009B0134ED18E8E7BD
:10C4D000039B019A3340D218FF18009B019201334D
:10C4E0000093D9E705B0F0BDC343F0B506001700CF
:10C4F000002585B0DB1701910393B54223DA0023B1
:10C500001C000093B44216DA019B1B5D5AB20292E2
:10C51000002A0ADB0321009803F070FA2B19C918CE
:10C520000123029A8B435A4013003B55009B013470
:10C530005B190093E6E7039B019A3340D2180192FE
:10C54000FF180135D9E705B0F0BDF8B5140006AA0B
:10C550000D00127801007C26180000F0A5F90127D3
:10C56000082362197642010039403143013B1172C0
:10C5700040085219002BF6D17C260127E900073329
:10C58000764205003D4062183543D554013B4008D2
:10C59000002BF6D1F8BD0000F0B585B00700029180
:10C5A000161E0393032E05D903F038FA16230360F1
:10C5B000002017E000F066F90500404303F070FA30
:10C5C000041E0FD0084BB200D35802990200280075
:10C5D0009847039B38000093220033002900FFF79F
:10C5E000B4FF200005B0F0BDD4090200012270B5EF
:10C5F00000231600441E4443824205DA0D19AD5C47
:10C60000013235405B19F7E701244200013A8918ED
:10C6100026000022844205DA0D7801343540521993
:10C620000918F7E7934202DC1B01981801E010019A
:10C63000C01870BDF0B589B006910792059000F062
:10C6400021F90300434306001800039303F028FA7E
:10C65000041E30D000231D001F000293174BBA00A8
:10C66000D3580699220030009847079B2200009378
:10C6700031003B000598FFF768FF21003000FFF70D
:10C68000B5FF029A049090420BDD280003F012FAE5
:10C69000039803F005FA002807D025000400049B46
:10C6A00002930137042FD9D101E0250004002000B6
:10C6B00003F000FA280009B0F0BDC046D40902001A
:10C6C00048DF704730B5234C85B0200002F086FA71
:10C6D000214B02250393214B0095019300230294E3
:10C6E0001A001800012102F098FA1D4B00950393DF
:10C6F0001C4B02940193002301211A00180002F040
:10C700008CFA194B013D0393184B29000193002328
:10C7100002941A001800009502F07FFA144B2900C9
:10C720000393144B029401931E23009300231A00D9
:10C73000180002F072FA104B029403930F4B290079
:10C7400001933423009300231A00180002F065FAC5
:10C7500005B030BD3228002028280020886700203E
:10C7600014280020BE6700200A2800204828002046
:10C770001E280020C0670020002800208A670020B3
:10C7800010B50E49040002F0ABFA002809D00C4B9A
:10C790000C4A0D491B78128809880C4802F09CFE4F
:10C7A00008E00B49200002F09BFA002804D0094859
:10C7B00002F0DFFE02F016FF10BDC0461E2800206A
:10C7C00048280020BE67002088670020C06700203E
:10C7D000002800208A67002010B5122001F0C8FF51
:10C7E00010BD10B5122001F0CDFF10BD162307B506
:10C7F000019301331422132100931220013302F01C
:10C800008DFF084802F0D2F902F09FFA0021064895
:10C8100002F03AFD02F0F0FD02F0E4FEFFF750FFF7
:10C82000FCE7C0464C280020E40902000A0014235B
:10C830000521434341430020891810B5064C890067
:10C8400061184A681B59824204D0013B5B43D20005
:10C85000403B981A10BDC046300B020010B5FFF7E0
:10C86000E5FF0722031DD8171040C018C01010BDE7
:10C870000523584341180248890041184868704709
:10C88000300B020014235843014BC0587047C04678
:10C89000300B0200800001394118024B8900C85852
:10C8A0007047C046F00A020010B50024032811D8D2
:10C8B0004B1E032B0ED8032A0CD003235943064BDF
:10C8C0008A189200D358A34204DBC000C318034A5D
:10C8D0009B009C58200010BD800A0200000A020044
:10C8E000F8B5431E032B01D9002050E01423584310
:10C8F000274BC5582E006E43300003F0D1F8041EBC
:10C90000F2D03200002103F0FDF821000022214E78
:10C910000023B018C75CCF540133072BFAD107327C
:10C920004919312AF4D12200C021013BD171521999
:10C93000002BFAD107273800684326180822C021A7
:10C94000300003F0DFF8E8000130082284212018CD
:10C9500003F0D8F82A003B0084210832A218013BDA
:10C9600011705219002BFAD1702770190133E91F89
:10C970007F428B420ADA1A00012632403A43D2B291
:10C98000E618F271013302704019F2E72000F8BD99
:10C99000300B0200BC0A020010B5041E08D08068EB
:10C9A00003F088F8E06800F050FD200003F082F802
:10C9B00010BDC3B2032200209A424041704770B5B7
:10C9C00005000C00282801D8032905D903F026F812
:10C9D0001623036000200BE01C2003F061F8002206
:10C9E000904205D08260C2600560047102614261BC
:10C9F00070BD431E70B504000D00032B0CD8FFF76B
:10CA000037FF002808D029002000FFF7D8FF0028B2
:10CA100007D00122026104E003F000F8162303604E
:10CA2000002070BD036910B5002B01D1282905D95C
:10CA300002F0F4FF16230360173B00E001601800CA
:10CA400010BD70B5041E0AD08068002804D00569A6
:10CA5000FFF7A2FF2800F8E7200003F02BF870BDD5
:10CA600010B50321040002F0E3FE0A2382004343D1
:10CA7000801A0419012C03D0022C02D1073300E0E4
:10CA80000433180010BD0B230100C20F12185210FE
:10CA900053431800CB0700D506307047F7B50500A3
:10CAA0000E1E019200D101360027EF570020072FFC
:10CAB00049D8380002F0A8FE060A0F124619042CC5
:10CAC000042040E06868FFF7CBFF02E06868FFF7EA
:10CAD000DAFF04001EE06B68DC001BE06B68DC0F13
:10CAE000E3180D245B105C4314E0AB68DA1C591E9C
:10CAF000002310781B02013A03439142F9D10C2420
:10CB00007F2B07D9104A0834934203D9083401E037
:10CB10000C2018E0019B31003800002B04D0FEF7F8
:10CB200077FF013E30180BE0FEF772FF01218140D4
:10CB30000700686804370818013802F079FE784366
:10CB4000001900E01420FEBDFF3F0000F0B50628EC
:10CB500002D100293EDA3BE0002939DD072837D829
:10CB600002F052FE040D191B1919193250181378CE
:10CB7000303B092B2CD801329042F8D10BE05018F1
:10CB8000164913785CB2002C22DBCB5C7F2B1FD8BC
:10CB900001328242F5D100201FE00120084017D168
:10CBA00015000F4E0F4F2B786C781B0223430E4C51
:10CBB0001C19B4420CD80D4C1B19BB4208D90235C4
:10CBC000AB1A9942EFDC08E0481E411E884103E0A1
:10CBD000012001E0484248414042F0BD940B020070
:10CBE0007F6A000042400000C07EFFFF0360FFFF3D
:10CBF000F7B507000D000192FFF7A8FF061E05D04C
:10CC000002F00CFF1623036000201BE0142002F04A
:10CC100047FF041E16D0077045608660002D0DDDAD
:10CC2000280002F03DFFA060002803D1200002F0A0
:10CC300041FFE9E72A00019902F046FF00232000A6
:10CC4000E3602361FEBD10B50400080011001A0066
:10CC5000FFF7CEFF00280AD0E368002B01D1A060C7
:10CC600000E018610023E0600361180001E001208A
:10CC7000404210BDF0B5040000201E000B6885B0D6
:10CC80000F002056110003931500FEF7DBFE019004
:10CC90000020019B2056002B30D0626893422DDA91
:10CCA000A2681900FFF7A4FF0290002800D1C4E198
:10CCB0000020A368019A01999A1863682056591AAE
:10CCC000FFF796FF041E00D1B7E133002A003900B8
:10CCD0000298FFF7CFFF002800DAAFE133002A0007
:10CCE00039002000FFF7C6FF002800DAA6E102980D
:10CCF000FFF752FE2000FFF74FFE9AE1072800D908
:10CD000097E102F08BFD08006E00CE00F6003E01B8
:10CD1000620196018801002E0ED0012D04DC29004D
:10CD20000020FFF7B7FD13E0691E0022380000F075
:10CD3000EFFA0028F3DA87E101220421380000F03D
:10CD4000E7FA002800DA7FE129003000FEF760FEF4
:10CD500001006268380000F0DBFA002800DA73E1B5
:10CD60000321606802F064FD00260500B54218DD6D
:10CD7000032164207143A3685B5C303B5843A36884
:10CD800059188B784A780A21303A4A43303BC31805
:10CD9000D218380000F0BCFA002800DA54E101365D
:10CDA000E4E7AB006268EB1A9B18012B06D1023353
:10CDB0005D43A2680421AA5C303A28E1022B00D02E
:10CDC00037E101335D43A16807334A5D4D19303ABD
:10CDD0005A436B780721303B9A18380000F098FAD4
:10CDE00027E1002E1CD0012D00DCCCE0691E0122C1
:10CDF000380000F08DFA002800DA25E12900012032
:10CE0000FFF748FD01006268380000F081FA002851
:10CE100000DA19E163680026DD0FED186D1026E0D9
:10CE200002220421380000F073FA002800DA0BE136
:10CE300029000120FEF7ECFDE4E7A0687100435CE7
:10CE40005AB2002A16DB824AD2562D235A43411881
:10CE50004B7859B2002910DB7D49CB56D2180B21F3
:10CE6000380000F055FA002800DAEDE00136B5424E
:10CE7000E3DC05E02D225242E9E701235B42EDE7C6
:10CE80006368DB0700D4D4E0A3686D00EB5C5AB2A2
:10CE9000002A02DB6E4AD25601E0012252420621EC
:10CEA000B5E0002E18D0022D6DDD691E022238007B
:10CEB00000F02EFA002800DAC6E029000220FFF771
:10CEC000E9FC01006268380000F022FA002800DA6C
:10CED000BAE0A2686168A7E004223800110000F0FF
:10CEE00017FA002800DAAFE029000220FEF790FDD3
:10CEF000E7E7002E1BD0012D45DD691E0322380017
:10CF000000F006FA002800DA9EE029000320FFF76F
:10CF1000C1FC63680100DA0FD2185210380000F02B
:10CF2000F7F9002800DA8FE00025FF2625E0082227
:10CF30000421380000F0ECF9002800DA84E0290030
:10CF40000320FEF765FDE4E7A36842495A5D5B19DB
:10CF50005B7812021A43404BD3188A4201D83F4BE8
:10CF6000D318C0211A0A4A433340D218B3393800C3
:10CF700000F0CEF9002867DB023563689D42E3DBF1
:10CF800057E0002E04D002F049FD162303605BE059
:10CF900003220421380000F0BBF9002854DBA36809
:10CFA00004215A783800013A00F0B2F900284BDB2E
:10CFB000A36804211A783800013A00F0A9F9002882
:10CFC00042DBA36808219A7821E0A2680024D31CE0
:10CFD000013A19782402013B0C439A42F9D1012508
:10CFE0007F2C0BD91E4B9C4204D880231B02E418D3
:10CFF0006D1903E0C02303251B03E4180722042155
:10D00000380000F085F900281EDB2200E900380016
:10D0100000F07EF90BE009220421380000F078F9D5
:10D02000002811DB0121A268380000F09BF90028DC
:10D030000ADB3868039BC01A08E000240298FFF757
:10D04000ABFC2000FFF7A8FC0120404205B0F0BD7A
:10D05000940B0200FC9F0000C03EFFFFC07EFFFF5C
:10D06000FF3F0000F8B506000F0000248568002D82
:10D070000AD03369326839002800FFF7FBFD002829
:10D0800004DB24182D69F2E7200001E00120404272
:10D09000F8BDF8B506000F0000258468002C07D005
:10D0A000200032693900FFF7F9FC24692D18F5E7F3
:10D0B0002800F8BDF8B5056904000F00002D03D065
:10D0C000FFF7D0FFC5174CE04369002B29D0012B97
:10D0D00003D12A002900062005E0022B1ED1020000
:10D0E000012107201832FFF783FD002816D0A3681E
:10D0F0001A78043A012A02D90361A06011E01A6982
:10D10000026118610DE02368834226DB00233900A9
:10D110003B602000FFF7A6FF002815DA01256D42CD
:10D120001FE0002631002000FFF7B3FF0722073081
:10D13000C317134018182179C010FEF743FC0100F3
:10D140008642E0DA0E00EDE707302179C010FEF7E5
:10D1500039FC2368011E994203DD2000FFF762FCC1
:10D16000D4E72800F8BDF7B507000E00FFF7A2FFCF
:10D17000002800DA84E03D69346839793868002D88
:10D1800045D0FFF753FB0500844246DC7BD03B686B
:10D19000011B5B00013300228B4249DAC7170720CD
:10D1A000E1180A18D4170440A418E4100740E2005C
:10D1B0007F19A81A521AFF10D118002802DDA742C1
:10D1C00000D109180022300000F0A2F8002857DB37
:10D1D0003B1B0193002B56DD0024012311221C422E
:10D1E00000D1DB320821300000F092F8002847DB44
:10D1F000019B0134A342F0D1FF00E91B002942DD6D
:10D200000022300000F084F800283CDA38E0FEF715
:10D21000C7FB0700C1008C4204DD02F0FFFB2223A4
:10D2200003602DE08C422ED0091B042905DC2A0066
:10D23000300000F06DF8C01726E0230007220B3302
:10D24000D9170A40D318DB10D900091B2A00300077
:10D25000019300F05DF8002812DB019BFF1A002FFC
:10D2600011DD01241122254200D1DB3208213000DA
:10D2700000F04EF8002803DB0135AF42F2D102E0A6
:10D280000120404200E00020FEBD70B5050000F026
:10D2900028F8041E12D001002800FFF764FF0028C0
:10D2A00004DA200000F0D1F8002007E0200000F0B0
:10D2B00089F80500200000F0C8F8280070BD8368D8
:10D2C00010B559000400406802F0CEFC002805D0DB
:10D2D000A36860605B00A360002001E00120404281
:10D2E00010BD70B50C2002F0DBFB051E0FD0002333
:10D2F0000360802002F0D4FB041E686004D1280083
:10D3000002F0D8FB200002E080232800AB6070BD53
:10D31000F8B5050000200C001600814221D02B68D2
:10D32000AA68D21A944205DD2800FFF7C8FF00283A
:10D33000F5DA16E0012108006A68D318621E9040F1
:10D340001A00D71ABC4208DD0700374001D011701F
:10D3500000E0177001324008F3E700202B681C1929
:10D360002C60F8BDF7B5040000200E001700CD00BA
:10D37000814226D02368A268D21AAA4205DA200088
:10D38000FFF79DFF0028F5DA1BE0012162688C465B
:10D39000D3183A00D11B8E420FDD190080200831CE
:10D3A00001911178014000D0614619700199013353
:10D3B00040088B42F5D10132ECE7002023685D196B
:10D3C0002560FEBDF8B504680500002C01D10021E0
:10D3D00039E00726E31DD8173040C018C01002F00E
:10D3E0005FFB0028F3D06D68E317334007002E0081
:10D3F0001B19DB103A1A9A420DDA082294460021D2
:10D40000B44432784900C9B2013611436645F8D1B7
:10D4100039700137EEE7DA43D2171A40D200AA1862
:10D420000725010025400ED0160000213478490060
:10D43000C9B201362143B41AAC42F7DB0824641B9D
:10D44000A140C15401000800F8BD10B5041E05D06C
:10D45000406802F02FFB200002F02CFB10BD000002
:10D46000F0B55E4CA7B0019323680490009102923E
:10D47000002B1CD15A4FFF213A008025FF321E2677
:10D480001370012257486D000170FF36FA5483541F
:10D4900052002A4200D0724001330A40FF2BF5D1DE
:10D4A0001D220021504802F02DFB01232360009B28
:10D4B0001E2B00DD8EE01A000021019802F022FBF5
:10D4C000009B9F1E484BDC5D002C3ED1012307AD25
:10D4D00007930593009BA34224DD0026059B6B6008
:10D4E000A3005B420393039B9E420ED0AA593D4B7F
:10D4F000FF21985C001902F081FA394B321F5B5C06
:10D50000A9584B40AB511600EDE7364B079AFF2167
:10D51000985C0435001902F071FA314B01345B5C00
:10D520000793D7E71F227A43304B2E499A180023DE
:10D530000098984206DB9C0007A82058085CD0544D
:10D540000133F5E70122284BDA551F246743274CA6
:10D55000E419029F029B049AFB1A9A4238DD019B50
:10D560003A781B78012653401E4AD55CFF2D14D112
:10D57000009B5A1E019B591C180002F0AEFAFF2DA9
:10D580001ED02078FF21401902F038FA144B5A5C63
:10D59000019B00995B18013B17E0009B9E42E7DA74
:10D5A000009AA31B985CFF21401902F027FA0C4B4C
:10D5B0005A5C019B9B5D5340019A93550136ECE701
:10D5C000009A019B9B180022013B1A700137C1E7AA
:10D5D000002001E00120404227B0F0BD806C002017
:10D5E0007E6B0020846C0020616B0020DE670020D1
:10D5F00052DF704710DF704760DF704761DF7047B0
:10D6000010B501F0FDF810BDF0B5254B85B01B78C5
:10D61000002B43D0234D244E2B6834685A4253418B
:10D62000DBB2009363425C41E4B2009B002B33D138
:10D6300003A8FFF7DDFF052808D0002802D001F07D
:10D640007BF805E003982B68984701E001230093DD
:10D65000002C1DD1154B03A91B8801240B80144BF2
:10D660001B6818000193FFF7C9FF071E052F09D09B
:10D67000002803D001F060F8002403E0019833682B
:10D6800098473C00009B002BD2D0002CCDD005E069
:10D69000009B002BCCD001E0002CDBD005B0F0BD0E
:10D6A000846D00208C6D0020906D0020866D002020
:10D6B000886D002070B504000720002925D08D0753
:10D6C00023D112480160124920000A80114A1249F0
:10D6D0001360FFF78FFF051E17D101220F4B104972
:10D6E0001A70C5239B00CB589B0D134201D10D48E6
:10D6F0000BE080240C4BE4035868002804D01A681F
:10D70000280022431A6000E00C6070BD886D002084
:10D71000866D0020946D002001D60100846D0020EC
:10D7200000E100E002200000A87200200E23002883
:10D7300002D0024B1860002318007047906D002043
:10D740000E23002802D0024B1860002318007047F7
:10D750008C6D0020064B10B51B68002B05D0984738
:10D76000002804D000F0E8FF01E0FFF74DFF10BDF6
:10D77000946D002070B5140005000E0014220021E5
:10D78000200002F0BFF901230022238022732672B9
:10D790006572954200D0A372002070BD0020034B3B
:10D7A00082B00193019B02B07047C0460028002060
:10D7B00007B5044B69460193019B0093FFF71CFFDB
:10D7C0000EBDC0460028002071DF704772DF704731
:10D7D00079DF70477DDF704765DF7047F0B5002562
:10D7E00006002F0089B001930EAB10CB04911B886B
:10D7F000039205932388029333889F423DDA73682E
:10D80000B9005918042207A802F05EF906AB0022FD
:10D81000D91C07A8FFF7E0FF00283DD106ABDB7855
:10D82000039A934225D16A426A41039923885200A0
:10D8300059188A1805998A421DDC002D09D16946BC
:10D840000133019A097C9BB22380D1542388013390
:10D850002380019B228807A89A1806ABDD1C2900AB
:10D86000FFF7BAFF002817D12A7801252388D3189B
:10D8700023800137C0E70C200EE0002085420BD04A
:10D880002388029A013B9B1A9BB20C30FF2B03D8D2
:10D890000020019A0299535409B0F0BDF0B51D0063
:10D8A00085B00AAB40CB03921F88022201970096F5
:10D8B0002B000400FFF792FF002807D10197009684
:10D8C0002B00102203992000FFF788FF05B0F0BD60
:10D8D000F0B5138887B0029300231380436B0700D1
:10D8E0000D001400002B14D0029A022A00D827E25F
:10D8F0001A7802230B701121238801339BB22380F5
:10D90000E954238801339BB22380EA5423880133EE
:10D9100023803A6B002A05D13B002E331A78002A67
:10D9200047D01EE02388029819001231814200D9A5
:10D9300006E21121E9542388013901339BB2238087
:10D94000E9542388013323801300013A0F331878F8
:10D950002188013B68542188013121809342F6D10E
:10D96000DAE72388029ED91C0C20B14200D9E8E1F5
:10D970000221E9542388103001339BB22380E854FC
:10D980002388013A01339BB223801538032A00D93A
:10D99000D7E1100001F038FF02040608002204E07D
:10D9A000012202E0E95401E00322EA542388013312
:10D9B00023803B002D331B78002B03D1BB78002B39
:10D9C00052D02EE02388029A09330C20934200D9CA
:10D9D000B7E104AE3000FFF7F7FE002800D0B0E159
:10D9E000082209212388EA542388133201339BB289
:10D9F0002380EA54208802AB013080B22080153A9F
:10DA0000C918281802F060F82388327806339BB2D0
:10DA10002380002A00D00122EA5423880133238086
:10DA2000CCE72388029A04330C20934200D988E182
:10DA300004AE3000FFF7CCFE002800D081E10322C5
:10DA40002388EA542388163201339BB22380EA5498
:10DA50002388328801339BB22380EB181A70120A94
:10DA60005A70238802332380FA78002A15D023883D
:10DA70000298D91C814200D962E10221E95423882D
:10DA8000013901339BB22380E95423885B189BB290
:10DA90002380EA5423885B1823807A68002A17D0F1
:10DAA00023880298D91C814200D949E102211278C9
:10DAB000E9542388083101339BB22380E954238839
:10DAC00052B201339BB22380EA542388013323806E
:10DAD0003B89002B03D13B8A002B1AD00CE0380085
:10DAE000029B0094019306222B0002210830FFF7CD
:10DAF000D5FE0028EFD024E13800029B009401936A
:10DB000007222B0003211030FFF7C8FE002800D0A9
:10DB100017E13B8B002B0CD03800029B0094019343
:10DB200015222B0014211830FFF7B8FE002800D072
:10DB300007E13B6A002B44D0228802990392063207
:10DB40000C208A4200D9FCE019880538052900D844
:10DB5000F7E07D4A7D4E8A1892B2B446B24200D8B0
:10DB6000EFE05A88052A00D8EBE0774E9619B6B256
:10DB7000664500D8E5E0764EB14204D0B24202D00C
:10DB8000914200D9DDE0052203996A5412212288CE
:10DB9000013292B22280A9542288013292B22280AC
:10DBA0001988AA181170090A51702288023292B29B
:10DBB00022805988AB181970090A597023880233DA
:10DBC00023807E6A002E31D0B38821881A1D521816
:10DBD0009446029A0C20944500D9B2E09A1CFE2A81
:10DBE00000D9AEE0FF2203336B54238801339BB28C
:10DBF0002380EA54238801339BB223803288EB18B8
:10DC00001A70120A5A70238802339BB22380B2889A
:10DC1000002A0BD0B1680538002900D191E0E8183E
:10DC200001F052FF2288B388D31823803B002C33A5
:10DC30001B78002B04D13B78181E00D181E03BE01B
:10DC4000BB6A002B00D179E0002303933B002C3307
:10DC50001B78039A9342EED90C26039B5E43BB6A62
:10DC60009E19B3889A1CFE2A6AD822880333AB54C3
:10DC70001622238801339BB22380EA542388013380
:10DC80009BB223803288EB181A70120A5A702088CF
:10DC9000023080B22080B288002A09D0B168002901
:10DCA0004CD0281801F010FF2288B388D3182380A5
:10DCB000039B0133DBB2C8E73A880720012A40D032
:10DCC00022880299901C88423AD8012B05D17B7892
:10DCD000029902339B18994232D3029B2818023BC7
:10DCE0009E1AB3B202936B4604AE1B893100338097
:10DCF000FFF770FD002824D13B78022B05D1338833
:10DD0000029A092193420AD905E0012B03D17B78BD
:10DD1000029A9A4201D26B461B89082133803388CC
:10DD2000FE2B0DD822880133AB542288013292B2E7
:10DD30002280A9542288D318238002E0072000E023
:10DD40000C2007B0F0BDC0467FF3FFFF7DF300005D
:10DD5000FFFF0000F0B593B06A461F2301AE971D88
:10DD60000D0033803B80002804D0C3785B0711D4BA
:10DD700007201FE004003080002D03D0EB78002B3B
:10DD8000F6D10FE02A003D803B7831782000FFF784
:10DD90001DFD0FE0320002A9FFF79AFD02AC00283A
:10DDA000EAD007E03A000AA92800FFF791FD0AAA85
:10DDB0000028E9D013B0F0BD75DF704776DF7047FB
:10DDC0007ADF70477BDF7047174B37B51888174BE2
:10DDD000984227D0164A174D13782C000133DBB236
:10DDE0001370297B994208D31349FFF7E5FF0028F8
:10DDF00018D0AB69002B14D114E0002313702B7CD6
:10DE0000002B08D03B21FFF7D9FF002803D0AB69D6
:10DE1000002B00D098476369002B03D0002201A893
:10DE20000270984737BDC046E06D0020FFFF00003C
:10DE3000A26D0020A46D0020E26D002037B5174BC5
:10DE4000174A5B881188174C174D99420CD8528895
:10DE50009A4209D36369002B03D0012201A8027002
:10DE6000984700232B7037BD2B78002B05D06369B2
:10DE7000002BF6D001A80022F1E70C4B1B78002BF9
:10DE800001D1616800E0A1680022094800F0E4FBCC
:10DE90000028E6D0A369002BE2D1E2E79A6D0020CA
:10DEA000E26D0020A46D0020986D0020A26D00207E
:10DEB000C06D0020154902000B0070B532CA32C394
:10DEC00032CA32C31268124C1A600022114B016828
:10DED0001A70914214D00832200001F0F5FD2000A4
:10DEE000FFF76EFF00280FD1012200210A4B52429A
:10DEF0001A800A4B0A4A0B48197000F095FB03E0A0
:10DF00002000FFF75FFFEDE770BDC046A46D002065
:10DF1000E26D0020986D0020E06D0020A26D0020D1
:10DF2000C9DD0100140C020010B50388112B19D0B3
:10DF300002D8102B05D041E0122B37D0502B20D027
:10DF40003CE0010082881E4B18311A801D480822CF
:10DF500001F0BAFD00221C4B1A701C4BDB89934266
:10DF60002CD129E00122164B52421A800022164B76
:10DF700017481A7000F0B4FB00281FD0134B9B69A0
:10DF800010E0124CC188E289914217D1038A022B1A
:10DF900014D1837CDB070FD40D4800F0A1FB0028CF
:10DFA0000CD0A369002B09D0984707E00100082294
:10DFB0000831044801F088FDFFF740FF10BDC0465E
:10DFC000E06D00209A6D0020A26D0020A46D00205D
:10DFD000C06D00208022194B9202DA67D221802284
:10DFE000174B520289005A5040395A5001212F22B2
:10DFF000596010000138C046C046C046C046C04601
:10E00000C046C046C046C046C046C046C046F1D124
:10E01000996000230B4910000B600138C046C046D0
:10E02000C046C046C046C046C046C046C046C046C0
:10E03000C046C046F1D1044A1370704704E100E0C5
:10E0400000100140EC6D00200C6E002010B54378EC
:10E05000020001338078DBB2984200D100231478AB
:10E0600000209C4205D00B70182350784343506821
:10E07000C01810BDEFF30583DB05DB0D0220002B7C
:10E0800021D0103B5AB2002A09DA0F22DBB21A4023
:10E09000083AC24082400C495218516804E0920884
:10E0A000C0320A4992005158032213409340D9408C
:10E0B0008B091340DBB20020012B04D0033B5A42F2
:10E0C0005A410230801A704718ED00E000E100E08C
:10E0D00070B50024224B5C649C64DC641C655C604D
:10E0E0009C60204B1B68A34239D01F491F4A8A58A5
:10E0F0001F490D68551B2D022D0A1A68AA421AD80D
:10E10000AD1AA4181A7CDE69002A10D000221A74F5
:10E11000184A1268002A07D0996958699047002860
:10E1200005D000F009FB02E05A6998699047002E7B
:10E1300001D03300E1E7104B104A197813788B4275
:10E1400005D10133DBB2022B00D100231370137809
:10E150000B4A9B009C5080220A4B52035A6070BDB0
:10E16000FC100140F06D002000100140040500008B
:10E17000EC6D0020F46D0020006E0020016E002088
:10E18000046E0020FCE100E0F0B59648964A036872
:10E1900096498DB0059314780B7800229C4212D0DA
:10E1A0000133DBB2022B01D00B7000E00A700B7858
:10E1B0008F4A9B009A58059B9B181B021B0A036001
:10E1C0000123029300E0029200218A4B09911B680F
:10E1D00008910493884B049C1B780193874B019D05
:10E1E0001B6806937F4B1B680A93854B1B7807932C
:10E1F000013DEDB2FF2D2CD0069BEE009E192300B1
:10E20000307877781C008742F2D01824444377682E
:10E2100001303C19B778C0B2874200D1002027787E
:10E22000022F02D0032FECD10CE064689C460394CB
:10E230001C00002CE5D0039FA74200D157E1A44663
:10E24000E469F6E7002BDCD000211974DB690121B9
:10E25000F8E7089B002B03D06846694B007F1870D5
:10E26000099B002B02D05F4B0A981860614B002974
:10E2700000D01C6002991B68002907D1049A08008D
:10E280009B1A5A1E9341DBB2039327E0002108003A
:10E290000C000E00002B1BD01D68954206D90029EA
:10E2A00001D054490B60AA1A1A6015E0521B641978
:10E2B000DD681E60DF69002D07D0D8611800059960
:10E2C0009D6009190902090A59603B000299E1E7BA
:10E2D000002901D0474A1360012303930027BC465D
:10E2E000444B1B6802933F4B02991B680593444BB8
:10E2F0001B780793019B013BDBB20193FF2B00D1FD
:10E3000082E00A00019BDC00069B1C19002802D059
:10E310000300C06923E02378657811009D42E9D0AD
:10E3200018215943656801336918A578DBB2237059
:10E330009D4200D120700B781500012B50D14B6805
:10E340001E7C002E4CD18D685D60CD689D600D698E
:10E35000DD60496999610799002900D05E605968BC
:10E36000059D04914D1B27492D022D0A9E688D4263
:10E3700002D875191D600BE00599049D491B09021F
:10E38000090AB14202D2761A1E6001E061461960A4
:10E39000614659609960012119746146D961002A6A
:10E3A0001CD01D6811688D4203D84D1B1560DA61C1
:10E3B00014E0110004920E68AE4206D2AD1BCE6985
:10E3C0000491002E05D03100F5E7761B0E600E009B
:10E3D00004991D60DE611500CB6101E01D0001277D
:10E3E0002A0093E7EC6D0020016E0020006E0020F3
:10E3F000046E0020F06D0020F86D0020FC6D002000
:10E40000026E0020FEFF7F004A4B002F00D01960F3
:10E410001B68029A9A4203D1039A002A00D161E054
:10E42000002B00D15CE01B6843480193434A444BF6
:10E4300015581B68434EE91A09023778090A033157
:10E440000290002F1FD18020D1274002BF00D05161
:10E45000403FD0518027C0203B4CBF024000275096
:10E46000276001272F2017600138C046C046C046EC
:10E47000C046C046C046C046C046C046C046C0466C
:10E48000C046F1D13770019C8C4200D20C00A8210B
:10E49000E3181B021B0AC900029C5350125927485B
:10E4A000521B1202120A5D1B2D0203322D0AAA42D0
:10E4B00018D9214BC35843502F200138C046C046BD
:10E4C000C046C046C046C046C046C046C046C0461C
:10E4D000C046C046F1D180221C4B92025A6001E036
:10E4E000FFF778FD00221A4B1A700DB0F0BD64459D
:10E4F0000BD1DB690121002B07D101270F498F6068
:10E50000390009970A93089707972768E4690B97DA
:10E5100003946446039FE761002F00D171E60B9FCF
:10E520003C00039F3F68BC4664442700039C27606F
:10E5300067E6C046F06D00200405000000100140B1
:10E54000EC6D00200C6E002000E100E0FCE100E03A
:10E55000026E0020F0B50327150085B002900191EE
:10E56000140003933D400720002D44D1234E002A80
:10E5700001D132603FE0FFF72DFD214B039A019955
:10E580001A60204B18221F70230018334A431900C9
:10E5900034606E463679636025706570A670083405
:10E5A00000209B188C42F4D18021C022C524FF2575
:10E5B000154B49031860154B52001870144BA400FA
:10E5C0001870144B99501A59AA433F3D2A431A51C7
:10E5D000A1221960029C1049D2008C50C424A400CE
:10E5E0001D590E4A2A40C0252D022A431A510C4BB0
:10E5F000CA580C4B1A6005B0F0BDC046FC6D002037
:10E60000F46D0020F86D0020F06D0020006E0020F9
:10E61000016E002000E100E000100140FF00FFFF5C
:10E6200004050000EC6D00200A4B10B51C6808239F
:10E63000002C0CD0013B002A09D0002807D000682C
:10E640000133047C002C02D1230041744261180084
:10E6500010BDC046FC6D0020F0B51D4B85B01E6896
:10E6600004000D0001920820002E2FD0002C2DD088
:10E67000013804292AD963690130002B26D0637C34
:10E680000027012B00D10F00FFF7F4FCC000331866
:10E69000009302ABDE1D31000098FFF7D7FC0300AA
:10E6A0000420002B12D001220A491A700A4A5C6029
:10E6B0008A58DD609A60019A1F615A613378009A26
:10E6C000002053708022054B52035A6005B0F0BD04
:10E6D000FC6D00200010014004050000FCE100E09A
:10E6E000134BF7B51F6805000823002F1DD0002825
:10E6F0001BD04269002A18D000260674FFF7BAFC26
:10E700006B46C4003C19DF1D39002000FFF79EFC5A
:10E710000423B04209D08022023B03703B7845605D
:10E720006370044B52035A6033001800FEBDC046AC
:10E73000FC6D0020FCE100E01FB5002101AA906003
:10E7400003481180516000F05BF805B000BDC04681
:10E75000014000000300A0220321C133FF33D20592
:10E760009B0099500123A1218340C9005350704759
:10E770000123A0218340024AC9058B507047C0463F
:10E780000C0500000123A122A0218340D200C9056D
:10E790008B50704770DF704771DF704773DF7047D1
:10E7A00074DF704776DF704777DF704778DF704738
:10E7B0007ADF70477CDF70477FDF704786DF704706
:10E7C000A0DF7047A2DF7047A9DF704763DF7047A3
:10E7D0003CDF7047704710B5FFF7AEFF10BD00007B
:10E7E000037810B5002B08D1044B3B211888FFF7A4
:10E7F000D9FF002801D0FFF79FFF10BDC87200208D
:10E80000034B10B5002B01D000E000BFFEE7C0466F
:10E81000000000001FB51C4B02AC1B78FF2B23D15E
:10E820001A4B1B78FF2B1FD100236A4669461370D1
:10E830005370174B1B681A788A70E522CA704D3ADC
:10E840000A7128324A715B88124A934204D00B70D5
:10E850001B0A4B70062209E02000FFF79DFF6B4664
:10E860000422991C0B2002E0062208490920684472
:10E8700001F02AF9002021002070FFF78BFF00280B
:10E8800001D0FFF759FF1FBDF9FF0300F8FF030098
:10E8900040710020FFFF000010B586B004221D4922
:10E8A000684601F011F9002348221B496846FEF72B
:10E8B00001FF002801D0FFF73FFF012101AC22003A
:10E8C0000800FEF757FF00232380984201D0FFF78E
:10E8D00033FF1248FEF762FF002801D0FFF72CFF3C
:10E8E0002000FEF765FF002801D0FFF725FF0C4848
:10E8F000FEF71CFF002801D0FFF71EFF0948FEF7B6
:10E900001FFF002801D0FFF717FFFFF783FF06B0B6
:10E9100010BDC046180C0200F8700020182400201A
:10E920006DEA0100D5E7010037B50420FFF73CFF91
:10E93000112301AC23700B4B1B685D68280001F0AC
:10E94000AFF9290082B22000FFF734FF002801D080
:10E95000FFF7F2FE8020FFF729FF002801D0FFF724
:10E96000EBFE37BD4071002010B5054C1822002188
:10E97000200001F0C7F8034B1B681B89238210BDE0
:10E98000B07200204071002010B58CB003AC08229A
:10E990000021200001F0B6F81A4B20001B685A89AC
:10E9A00022809B896380184B1B6801936B469B8870
:10E9B000A380164B1B6801936B469B88E380FFF78F
:10E9C000F7FE002801D0FFF7B7FE05AC1C2200219E
:10E9D000200001F097F80E4B20001B680193636044
:10E9E000F0231B03A360032323730A4B63610A4BC9
:10E9F000A361FFF75FFA002801D0FFF79DFE0CB07E
:10EA000010BDC046407100201C0C0200200C02000A
:10EA1000240C0200E1E70100D7E70100002310B554
:10EA2000044A09211800FFF795FD002801D0FFF7DF
:10EA300083FE10BD106E002010B50648FFF7AEFE35
:10EA4000122805D0082302009A4301D0FFF774FE74
:10EA500010BDC046B072002010B5FFF7A1FE08231C
:10EA600002009A4301D0FFF767FE10BD70B503881E
:10EA700004001B2B66D011D8112B35D002D8102BD7
:10EA800019D077E0132B4DD0142B73D13E4B18883F
:10EA900000231A001900FFF791FE61E0512B3BD0D3
:10EAA00004D81D2B61D0502B30D063E0522B41D0C5
:10EAB000552B4DD05EE002228388334D2B80334BA3
:10EAC0001A70FFF7B9FF002328881A001900FFF712
:10EAD0007BFE002801D0FFF72FFE2D4B002B49D0E5
:10EAE0002000FDF779FE45E00122274B52421A80B3
:10EAF000FFF7B2FF0022254B1A70FFF79DFF254B51
:10EB0000002B37D02000FDF76CFE33E0224B002BAA
:10EB100030D0FDF735FE2DE0204B002B2AD000E051
:10EB200000BF27E0184B1E4A188800231900FFF782
:10EB300043FE15E0144B188800231A001900FFF754
:10EB400043FE0DE0037A002B14D1FFF741FE07E0EE
:10EB50008379002B0ED10C4B13211888FFF722FE6E
:10EB6000002807D0FFF7E8FD04E00E4B002B01D092
:10EB700000E000BF0C4B002B02D0200000E000BFE3
:10EB80002000FFF7D1F970BDC8720020B0720020DC
:10EB9000D9C70100E3C7010081C7010000000000E0
:10EBA0005C2800200000000000000000094B10B5A8
:10EBB0001860FFF771FEFFF7B7FEFFF7D5FEFDF710
:10EBC00081FDFFF72BFFFFF7DFFE012302485B42C9
:10EBD000038010BD40710020C872002010B5038A68
:10EBE0000400002B04D1037B427B1B0213430382EE
:10EBF000210020001231FFF7E9FD002801D0FFF7C6
:10EC00009BFD22002100143210310120FFF7D8FDB6
:10EC1000002801D0FFF790FD10BDF0B5070095B0BA
:10EC200003931AAB1B880DAE0191140000211C2226
:10EC300030000125029300F065FF39002940A9400A
:10EC4000019AC9B22A40D20011432C4023010C0082
:10EC50001C9A1C433470927C07AB9A701D9A05ACC9
:10EC6000128800211A802000032200F04BFF002FA1
:10EC700002D010231D432570019B002B02D01122CE
:10EC800005AB5A70062205ACA378012093431A0005
:10EC900004230399134308AD014083430B4314221B
:10ECA00000212800A37000F02DFF07AB08936B46EE
:10ECB0001B891C9A2B816B461B896C60AB811B9B4B
:10ECC00031002B611D9B908A02332A00FFF77AFDE9
:10ECD00006900698002801D0FFF72EFD15B0F0BD74
:10ECE000C3884888181A43425841C0B27047F0B5EB
:10ECF0009DB007000E0015000021382268460EACBA
:10ED000000F000FF38220021200000F0FBFE062367
:10ED10006A46D370043B002F01D0137000E02370CB
:10ED2000002E03D001236A4605961382002D00D0E1
:10ED3000099521006846FFF70DF8002801D0FFF77C
:10ED4000FBFCFFF779FE1DB0F0BD002210B51100ED
:10ED50000120FFF7CCFF10BDA32373B5DB00C35820
:10ED600002006846DBB2C3710B7F0C7D07309C420A
:10ED700002D900780C69E0540B7F0E7B0133DBB2C3
:10ED80005C1C0B77B44205D28B680120195D084BDF
:10ED9000D1500CE00D7D0120AC4203D2C97E044B62
:10EDA000D15004E0B34202D3AB429B41584276BDFE
:10EDB0001C050000F7B543790500019301984C4B01
:10EDC00044011819067E0820002E00D08EE000298C
:10EDD00003D101994748090141181A51A024012380
:10EDE0000F7B0E78E40544489F4202D8B34023507D
:10EDF00003E0B340A126F600A3510123A0260F781B
:10EE0000F605C137FF37BF00E3514C78FF2C08D01F
:10EE1000A340335023000327C133FF339B009F518E
:10EE200001E0012464428B78FF2B08D0A026002744
:10EE30009C46C133FF339B00F6059F5102E001233E
:10EE40005B429C46CE78FF2E0CD00123A127B34015
:10EE5000A026FF00F605F3510327CB78C133FF331B
:10EE60009B009F516B79224ECF785B01F3189F7600
:10EE70000F782B683E00A127FF00DE511C50A22016
:10EE80006446C0001C508C681C481C50487B0F7B9B
:10EE9000441EA041164C022F05D0032F05D0022698
:10EEA000012F04D102E0042600E006263043144E70
:10EEB000985168794E7940012018C676002A03D00F
:10EEC000C120042680001E50A0200126C0001E5034
:10EED000002A04D004200979285600F0C9F8019BC3
:10EEE00000205B01E418012360762376FEBDC04656
:10EEF00044710020280C02000C05000024050000CD
:10EF000054050000F7B5019043790093009C3C4BF9
:10EF100065015E19777E1124002F6ED1EC58A4464E
:10EF2000002C04D01424224201D1133C74765B19C6
:10EF30001C000E000834A1CEA1C4250034680227AD
:10EF40002C6001255C7FAC43BC435C779B7EFF2B30
:10EF500004D0A0249D402B4BE405E550009B284E97
:10EF60005B01002A04D00022F3185A76062444E0FC
:10EF7000019804250468C2202700F3188000FC379C
:10EF800025501A77FA600A79002A02D00B681A789D
:10EF900000E0DA7E1C4BE2500A79012A02D90A68A5
:10EFA000527806E00A7B012A04D9009A5201B2186D
:10EFB000D27EE2506346002B10D0C12304229B0076
:10EFC000E250002419E00023FB60009B20005D015B
:10EFD00075192900FFF7C0FE002803D0FB68002B3D
:10EFE000FCD0F0E7AA7E0400FF2A06D00123A0216E
:10EFF0009340A122C905D2008B502000FEBDC0461F
:10F00000447100200C0500001C0500001FB5029390
:10F010006B4606AC247800911A71694600221C7375
:10F02000FFF770FF04B010BD002210B50D4B0E4C61
:10F03000DA6021000D48FFF78FFE210000280FD174
:10F04000A27EFF2A06D00123A0209340A122C00562
:10F05000D20083500023081D4B760B710B68984734
:10F0600010BDC046FC30004044710020003000401C
:10F07000F0B58901002814DA0F23C4B22340083BFD
:10F08000164A9B0803259B009B18FF222C40AC408E
:10F0900015001140A540A140DE69AE433143D9615E
:10F0A00011E00F4B82089200D218FF2303241F00A7
:10F0B000C0250440E400A7400B40A340AD005659D2
:10F0C000BE43334353511F23C02118401E3B83408E
:10F0D000034A490053501360F0BDC04600ED00E004
:10F0E00000E100E0A0238000DB05C018E023DB0086
:10F0F00010B5044AC45809042240C250C2581143F2
:10F10000C15010BDFFFFFCFFF7B50024C12501224F
:10F1100026004A4B4A484B49AD001F68012F04D1D5
:10F1200047593A4201D01E601443043352008B42C7
:10F13000F3D10022444B00921A68012A0AD100221E
:10F140001A6080231B061C43A022A223D205DB00E9
:10F15000D3580093230705D1002C6DDA0123002733
:10F160005B424CE0A22701260025FF0026420CD07E
:10F17000334AAB009A18D059D1590322090C1140D7
:10F18000324AC004C00E9B58984701357600042DC2
:10F19000ECD1E1E7E4B2C02125008D43EB40BF395B
:10F1A0000B4249D053191B7DA4095BB29B009E58AA
:10F1B000002E2AD00122AA40032C00D117432B0095
:10F1C000A021C133FF33C9059B005B5800999B0305
:10F1D0009B0F0A421CD1032B2ED1032C1BD10221E1
:10F1E0002800FFF77FFF002E19D1A223A022DB0009
:10F1F000D205D258009B93421ED03B00009234248B
:10F20000124A1457611CC5D116E0032C14D1D1E762
:10F21000022B11D10CE0002E0ED0002300E00123C0
:10F22000019321002800B047019B002BDDD103E0B2
:10F23000032CF0D12100D3E7F7BDC04600610040A8
:10F2400000600040106100407C610040647100205B
:10F2500082B00190019B002B12D0019B0948013B19
:10F2600001930138C046C046C046C046C046C046AD
:10F27000C046C046C046C046C046C046F1D1E9E7D8
:10F2800002B07047E70300000823F0B5060095B010
:10F2900000AF0422F8183960254900F015FC300051
:10F2A00000F0FEFC6A460330C3B27B600733DB0824
:10F2B000DB00D31A9D4610236D4600242B70AA3321
:10F2C0006B70B83BAB70300000F0EAFC844205D2B2
:10F2D000325D2B190134DA70E4B2F4E70C23FC1828
:10F2E000144B08202380BB883818A38010233822B1
:10F2F0000021C018A56000F005FC082106233C226F
:10F3000079188A18FB76053B137008223B85102379
:10F31000BA18F962D01839683C64FEF71BFD002862
:10F3200001D0FFF709FAFFF787FBBD4615B0F0BD26
:10F33000380C0200AAFEFFFFF7B51B4C0125206820
:10F34000FFF716FA0023194AA02011682200A22410
:10F350001F00174E0193C005E4000359CB402B401A
:10F36000002F03D0002B0BD1012702E05F427B412D
:10F37000DFB2019BB34203D8019B01330193ECE759
:10F380001068FFF7FFF905200138C046C046C046A7
:10F39000C046C046C046C046C046C046C046C0463D
:10F3A000C046F1D1F7BDC0461867002004670020B1
:10F3B00040420F00322330B55943C4172B3B234042
:10F3C0001B18DB10C9180A4C0A4B6556184004D5A7
:10F3D000082301385B42184301300723181A063B03
:10F3E000834052426A401A406A40625430BDC0466F
:10F3F000612C00200700008010B5034A002103485B
:10F4000000F080FB10BDC046983A0000612C00203F
:10F41000F7B51E00089D00900191D71A089B019A2C
:10F42000EB1A9A4211DD3400009AA31B9A4209DDBF
:10F430003A5D012A00D0002220002900FFF7BAFF20
:10F440000134F1E70135BF18E8E7F7BDF0B597B033
:10F450000492204AC00012181E00002001270391C8
:10F4600006ABC4001C190023155C390099402940E3
:10F470001941E1540133082BF7D101300828EFD1AD
:10F48000012E1DD00025F700BD4220D031002800FC
:10F4900000F0CEF90024C00006AB1B180593310024
:10F4A000200000F0C5F9059B1A5C049B5919039BC9
:10F4B000E0180134FFF77EFFA742F0DC0135E3E7F7
:10F4C000049B06AA00930100039BFFF7A1FF17B05E
:10F4D000F0BDC04661280020F7B51F000025DE0002
:10F4E000009001927418009800F0DAFBA8420DD940
:10F4F0009023FF33A11B9C4205DC009AFBB2505DB8
:10F50000019AFFF7A3FF0135A419ECE7F7BD00004E
:10F51000C8235B00594310B50023FF244018074956
:10F520000818012A01D1C45401E00021C154C821A6
:10F53000323349008B42F4D110BDC046612C00200B
:10F54000F7B50700160000250191019B9D420FDAD7
:10F550000024BC4209DA325D012A00D000222000DA
:10F560002900FFF7D5FF0134F3E70135F619ECE781
:10F57000F7BD0022F0B587B002AF1100FCF71BFF0A
:10F5800004796A4623006343FB600733DB08DB0032
:10F59000D31A9D460600002502ABBB60FB689D4266
:10F5A00015D02800210000F029FA61432800796075
:10F5B000210000F03DF9B9687B688C460121634465
:10F5C0001A00B3685B5D6D180B401354E6E70A231D
:10F5D0000093BA6821002000FFF7B2FFBD4605B0D6
:10F5E000F0BD0000F0B501273900454BA0221B6893
:10F5F000D2059940434BC5B0D1500A20FFF728FEF1
:10F60000802200215200404800F07CFA302300257F
:10F610003E4E04AC3370103B2370103BE370233339
:10F6200023715D33A371643B7770B7706770677146
:10F63000E771237267722B0014222100F570357177
:10F640007571A570A572E57225736573A573E57371
:10F6500025746574A574E574FF1900952C48FFF7AF
:10F66000D5FCFFF769FE284B2A002900009728489F
:10F67000FFF7CCFCFFF760FEFA230397E37000244A
:10F680002449FA22491905A800F01EFA204F230048
:10F69000FE2204A900943800FFF7B8FCFFF74CFEE7
:10F6A000039B220000932100174B3800FFF7AEFCAC
:10F6B000FFF742FE184BFA359D42E0D12423012585
:10F6C0003370757023003100B47003220094380049
:10F6D000FFF79CFCFFF730FE02232200009321007D
:10F6E000094B3800FFF792FCFFF726FE044BA022DF
:10F6F0001B68D2059D40A123DB00D55045B0F0BD6D
:10F70000086700200C0500009C7100201C67002089
:10F710000C670020612C0020983A0000F0B5304CB6
:10F7200087B022602F4A304F13600C9B0D9A2F4EEA
:10F730002F4D3B602F4B29601A603060FFF75CFE55
:10F740003068FFF707F83068FFF71CF82868FFF704
:10F7500001F82868FFF716F82068FEF7FBFF20681D
:10F76000FFF710F8A021002203203B68C905C13330
:10F77000FF339B005A501B4B1B68C133FF339B0068
:10F78000585002A908001C4B70CB70C01B681B4C62
:10F7900003608023DB058B60164B20001B68CB7059
:10F7A00002230B73FFF706FB002801D0FEF7C4FF0E
:10F7B000002504222B00124900952000FFF726FCAB
:10F7C000FFF7BAFD1C232A00009329000D4B2000EF
:10F7D000FFF71CFC0120FFF73BFD07B0F0BDC04662
:10F7E00018670020086700200467002000670020D9
:10F7F00014670020FC6600203C0C02000C6700200F
:10F800001C6700209C71002002B471464908490021
:10F81000095C49008E4402BC7047C04603B471467F
:10F82000490840004900095A49008E4403BC70470A
:10F8300003460B437FD4002243088B4274D3030951
:10F840008B425FD3030A8B4244D3030B8B4228D3F2
:10F85000030C8B420DD3FF22090212BA030C8B4218
:10F8600002D31212090265D0030B8B4219D300E0B8
:10F87000090AC30B8B4201D3CB03C01A5241830B3D
:10F880008B4201D38B03C01A5241430B8B4201D3ED
:10F890004B03C01A5241030B8B4201D30B03C01A16
:10F8A0005241C30A8B4201D3CB02C01A5241830A90
:10F8B0008B4201D38B02C01A5241430A8B4201D3BF
:10F8C0004B02C01A5241030A8B4201D30B02C01AE9
:10F8D0005241CDD2C3098B4201D3CB01C01A524150
:10F8E00083098B4201D38B01C01A524143098B42D9
:10F8F00001D34B01C01A524103098B4201D30B01C2
:10F90000C01A5241C3088B4201D3CB00C01A5241E6
:10F9100083088B4201D38B00C01A524143088B42AB
:10F9200001D34B00C01A5241411A00D20146524144
:10F93000104670475DE0CA0F00D04942031000D363
:10F940004042534000229C4603098B422DD3030AB8
:10F950008B4212D3FC22890112BA030A8B420CD3C8
:10F96000890192118B4208D3890192118B4204D3F1
:10F9700089013AD0921100E08909C3098B4201D371
:10F98000CB01C01A524183098B4201D38B01C01AAB
:10F99000524143098B4201D34B01C01A5241030922
:10F9A0008B4201D30B01C01A5241C3088B4201D3D1
:10F9B000CB00C01A524183088B4201D38B00C01A7E
:10F9C0005241D9D243088B4201D34B00C01A524155
:10F9D000411A00D20146634652415B10104601D3E2
:10F9E0004042002B00D54942704763465B1000D36C
:10F9F000404201B5002000F005F802BD0029F8D012
:10FA000016E770477047C04610B5034B0A00010067
:10FA1000186800F07FF810BD84670020014B18685B
:10FA20007047C04684670020084B10B50400002BC7
:10FA300002D0002100E000BF054B1868836A002B4C
:10FA400000D09847200000F071F9C0460000000087
:10FA5000500C02000E4B70B500251E000D4CE41A30
:10FA6000A410A54204D0AB00F35898470135F8E73D
:10FA700000F05EF9084B00251E00084CE41AA410A3
:10FA8000A54204D0AB00F35898470135F8E770BDA4
:10FA9000886700208867002088670020886700202A
:10FAA00010B5034B0100186800F088F810BDC0467F
:10FAB0008467002010B5034B0100186800F038F887
:10FAC00010BDC04684670020002310B59A4203D0C1
:10FAD000CC5CC4540133F9E710BD10B5884202D99B
:10FAE0008B18984201D3002305E09B1A013A08D3F2
:10FAF000995C8154FAE7934203D0CC5CC45401333F
:10FB0000F9E710BD03008218934202D01970013347
:10FB1000FAE770474A4370B51100140000F04EF840
:10FB2000051E03D022000021FFF7ECFF280070BD66
:10FB300030B500293ED004390B68002B00DAC91813
:10FB40001D4A13681400002B02D14B60116031E094
:10FB50008B420DD90A688818834203D118685B6804
:10FB600082180A604B60216024E08A4203D81300A7
:10FB70005A68002AF9D11D685C198C420BD10968BA
:10FB8000691858181960824214D1106852684118D7
:10FB900019605A600EE08C4202D90C23036009E020
:10FBA00008680C18A24203D1146852682018086033
:10FBB0004A60596030BDC046A0720020032370B572
:10FBC000CD1C9D43083506000C2D01D20C2505E007
:10FBD000002D03DA0C230020336040E0A942F9D85D
:10FBE0001F4B1C681A002100002913D00B685B1BF7
:10FBF0000DD40B2B02D90B60CC181EE08C4202D125
:10FC0000636813601AE04B6863600C0016E00C0038
:10FC10004968E9E7134C2368002B03D1300000F05A
:10FC20002DF820602900300000F028F8431CD1D0C6
:10FC30000323C41C9C43A0420AD125602000072254
:10FC40000B30231D9043C31A09D05A42E25006E0FC
:10FC5000211A300000F012F8431CEED1BAE770BD53
:10FC6000A07200209C72002010B5034B0A00010016
:10FC7000186800F01CF810BD84670020002370B5E0
:10FC8000064C05000800236000F042F8431C03D135
:10FC90002368002B00D02B6070BDC046CC720020C2
:10FCA0000023C25C0133002AFBD1581E7047F8B50F
:10FCB00006000C001500002904D11100FFF77EFF9B
:10FCC000040018E0002A03D1FFF732FF2C0012E0F5
:10FCD00000F013F885420ED929003000FFF76EFFBF
:10FCE000071E07D021002A00FFF7EEFE210030009A
:10FCF000FFF71EFF3C002000F8BD0B1F1A68101F05
:10FD0000002A04DA891804390B68D01804387047BF
:10FD1000044A1368002B03D01818106018007047AD
:10FD2000014BF9E7A4720020D0720020FEE7C04624
:10FD3000F8B5C046F8BC08BC9E467047F8B5C0464A
:10FD4000F8BC08BC9E46704795B20100E9B20100BC
:10FD50003FB30100A7B3010011B4010083B4010057
:10FD6000FDB4010071B50100C4770000F37200001A
:10FD7000AA7D00009D7800002F6600001863000037
:10FD8000416C00007669000012540000255100000B
:10FD90007C5E00004B5B0000F9450000CE40000097
:10FDA000974F0000A04A00005F3500006830000057
:10FDB000313F0000063A0000B42400008321000017
:10FDC000DA2E0000ED2B000089160000BE130000A3
:10FDD000E71C0000D0190000620700005502000077
:10FDE0000C0D00003B0800000A0000000C000000A1
:10FDF0000E000000090000000B0000000D000000D4
:10FE000008000000100000001000000008000000C2
:10FE10000A0000000C0000000000000000000000CC
:10FE200000000000000000000000000000000000D2
:10FE300000000000000000000100000000000000C1
:10FE400001000000000000000100000000000000B0
:10FE500001000000000000000100000000000000A0
:10FE60000100000000000000010000000000000090
:10FE70000100000000000000010000000000000080
:10FE8000010000000000000002000000000000006F
:10FE9000020000000000000001000000000000005F
:10FEA000020000000000000002000000000000004E
:10FEB000040000000000000001000000000000003D
:10FEC000020000000000000002000000020000002C
:10FED000020000000200000002000000000000001C
:10FEE000040000000000000004000000000000000A
:10FEF00004000000000000000200000000000000FC
:10FF000004000000000000000200000004000000E7
:10FF100004000000010000000200000000000000DA
:10FF200002000000020000000400000002000000C7
:10FF300004000000020000000200000000000000B9
:10FF400003000000020000000400000004000000A4
:10FF50000400000004000000020000000200000095
:10FF60000400000001000000060000000200000084
:10FF70000600000002000000040000000000000075
:10FF80000100000004000000040000000400000064
:10FF90000300000008000000020000000200000052
:10FFA000060000000200000004000000060000003F
:10FFB0000700000004000000040000000000000032
:10FFC000080000000100000008000000040000001C
:10FFD0000C0000000400000003000000010000000D
:10FFE00004000000050000000B00000005000000F8
:10FFF0000B000000050000000500000001000000EB
:020000022000DC
:1000000005000000050000000500000007000000DA
:100010000B000000070000000500000001000000C8
:1000200007000000030000000F00000002000000B5
:10003000030000000D0000000100000005000000AA
:100040000A00000001000000010000000F00000095
:100050000200000011000000050000000100000087
:100060000900000004000000110000000100000071
:100070000200000013000000030000000400000064
:10008000030000000B00000011000000040000004D
:10009000090000001000000003000000050000003F
:1000A000030000000D0000000F000000050000002C
:1000B0000F0000000A00000004000000040000001F
:1000C0001100000000000000110000000600000008
:1000D00013000000060000000200000007000000FE
:1000E00011000000000000000700000010000000E8
:1000F00022000000000000000400000005000000D5
:10010000040000000E0000000B0000000E000000C4
:10011000100000000E0000000600000004000000B7
:10012000060000000E0000000B00000010000000A0
:100130001E00000002000000080000000400000093
:10014000080000000D00000007000000160000007D
:10015000160000000D0000000A0000000200000070
:1001600013000000040000001C0000000600000056
:10017000210000000400000008000000040000004E
:100180001600000003000000080000001A00000034
:100190000C0000001C000000030000000A0000002A
:1001A0000300000017000000040000001F00000012
:1001B0000B0000001F000000070000000700000007
:1001C00015000000070000000100000025000000ED
:1001D000130000001A000000050000000A000000E3
:1001E000130000000A0000000F00000019000000CA
:1001F00017000000190000000D00000003000000BF
:10020000020000001D0000002A00000001000000A4
:10021000170000001C00000011000000000000009A
:100220000A000000170000000A0000002300000080
:100230001300000023000000110000000100000076
:100240000E000000150000001D000000130000005B
:100250000B0000002E0000000D0000000600000052
:100260000E000000170000002C0000000700000036
:100270003B000000010000000C000000070000002F
:100280000C0000001A000000270000000E00000013
:100290001600000029000000060000000E0000000B
:1002A00006000000220000002E0000000A000000EE
:1002B00002000000400000001100000004000000E7
:1002C0001D0000000E000000310000000A000000C8
:1002D000180000002E0000000400000012000000C2
:1002E0000D00000020000000300000000E000000A3
:1002F0002A0000002000000014000000040000009C
:1003000028000000070000002B000000160000007D
:100310000A00000043000000130000000600000077
:10032000120000001F000000220000002200000058
:10033000140000003D000000C1C1C1C1C1C1C1C164
:10034000C0C0C0C0C0C1C1C0C1C1C1C0C1C1C0C1A5
:10035000C1C1C0C1C1C0C1C1C1C0C1C1C0C0C0C094
:10036000C0C1C1C1C1C1C1C1C100000000000000C5
:10037000000000000000000000000000000000007D
:100380000000000000000000150000001A0000003E
:1003900000000000070000000A0000000D0000003F
:1003A00011000000190000002C00000007000000F0
:1003B0000A00000010000000160000001C000000F1
:1003C0001D00000046000000070000000F000000B4
:1003D0001A000000240000002C0000002100000092
:1003E000640000000700000014000000240000006A
:1003F00034000000400000002500000086000000DE
:10040000070000001A000000300000004800000053
:100410005800000029000000AC00000007000000A8
:100420002400000040000000600000007000000098
:100430002D000000C40000000000000028000000A3
:10044000480000006C000000820000003100000045
:10045000F200000000000000300000005800000022
:10046000840000009C000000350000002401000012
:10047000000000003C0000006E000000A000000032
:10048000C0000000390000005A0100000000000018
:100490004800000082000000C0000000E0000000F2
:1004A0003D0000009401000000000000500000002A
:1004B00096000000E000000008010000410000007C
:1004C000D20100000000000060000000B000000049
:1004D0000401000034010000450000001402000087
:1004E0000000000068000000C600000020010000BD
:1004F0006001000049000000450200000300000008
:1005000078000000D80000004001000080010000D9
:100510004D0000008F020000030000008400000076
:10052000F000000068010000B00100005100000070
:10053000DD02000003000000900000001801000030
:1005400098010000E0010000550000002F030000AA
:1005500003000000A800000034010000C0010000FA
:100560001402000059000000850300000300000091
:10057000B400000052010000F80100004C0200002D
:100580005D000000DF03000003000000C400000065
:100590006C010000220200008A02000061000000DD
:1005A0003D04000003000000E0000000A001000086
:1005B00058020000BC020000650000008404000036
:1005C00004000000E0000000BA0100008402000006
:1005D000EE02000069000000EA04000004000000D0
:1005E000FC000000DC010000B2020000300300004B
:1005F0006D00000054050000040000000E01000022
:10060000F8010000EE020000840300007100000009
:10061000C2050000040000002C01000030020000B0
:100620002A030000C003000075000000340600002B
:1006300004000000380100004C02000066030000C6
:100640001A04000079000000AA060000040000005F
:100650005001000084020000B803000056040000AE
:100660007D00000024070000040000006801000075
:10067000BC020000FC030000B00400008100000088
:10068000810700000300000086010000D80200007E
:100690001A040000EC0400008500000003080000BC
:1006A00003000000A4010000100300007404000017
:1006B00046050000890000008908000003000000D2
:1006C000C20100002C030000B0040000A0050000DF
:1006D0008D0000001309000003000000E00100008D
:1006E000640300000A050000FA0500009100000004
:1006F000A109000003000000FE0100009C030000AF
:10070000460500005406000095000000330A000072
:10071000030000001C020000D4030000A00500003C
:10072000AE06000099000000C90A000003000000A6
:100730003A0200000C040000FA050000080700005F
:100740009D0000003C0B0000000000003A02000089
:10075000280400003606000062070000A100000027
:10076000DA0B0000000000005802000060040000E6
:1007700090060000BC070000A50000007C0C0000F3
:100780000000000076020000B4040000EA06000049
:1007900034080000A9000000220D00000000000045
:1007A00094020000EC04000044070000AC080000C4
:1007B000AD000000CC0D000000000000D0020000E1
:1007C000240500009E07000006090000B10000009B
:1007D0007A0E000000000000EE0200005C05000040
:1007E000F80700007E090000947C0000BC85000032
:1007F000999A0000D3A40000F6BB000062C7000075
:1008000047D800000DE6000028F90000780B010031
:100810005D140100172A010032350100A6490100CC
:1008200083560100C9680100EC770100C48E010005
:10083000E1910100ABAF01008EB001001ACC0100C4
:100840003FD3010075ED010050F20100D50902000F
:10085000F0160200BA2802009F3702000B4B02007C
:100860002E540200646A020041750200698C020085
:10087000A1A1A1A1A1A1A0A0A0A1A1A0A1A0A1A16D
:10088000A0A0A0A1A1A1A1A1A100000000000000C2
:100890000000000000000000000000001200000046
:1008A0000000000016000000000000001A00000018
:1008B000000000001E0000000000000022000000F8
:1008C00000000000160000002600000018000000D4
:1008D0002A0000001A0000002E0000001C0000008A
:1008E000320000001E000000360000002000000062
:1008F0003A000000220000003E0000001A00000044
:100900002E0000001A000000300000001A00000055
:10091000320000001E000000360000001E00000033
:10092000380000001E0000003A0000002200000015
:100930003E0000001C000000320000001A00000011
:10094000320000001E000000360000001C00000005
:1009500036000000200000003A0000001E000000E9
:100960003A000000220000003E0000001A000000D3
:10097000320000001E000000360000001A000000D7
:10098000340000001E0000003800000022000000BB
:100990003C0000001E0000003A00000022000000A1
:1009A0003E0000001E00000036000000180000009D
:1009B000320000001C000000360000002000000093
:1009C0003A0000001A000000360000001E0000007F
:1009D0003A000000E5C3010025C4010085C4010000
:1009E000E9C40100676F6F2E676C2F704B694C571D
:1009F0003500452D496E6B2064697370000000005E
:100A000045440000AE550000936700007876000072
:100A1000DE0600003517000008250000E334000062
:100A20007241000099500000A46200004F73000062
:100A3000E9030000021200003F200000D431000052
:100A40002B4E0000C05F0000FD6D0000167C000012
:100A5000B00C00005B1D0000662F00008D3E000002
:100A60001C4B0000F75A0000CA6800002179000002
:100A7000870900006C180000512A0000BA3B0000F2
:100A8000FFFFFFFFFFFFFFFFFFFFFFFF0000000072
:100A9000FFFFFFFFFFFFFFFF01000000020000005B
:100AA000FFFFFFFF0300000004000000FFFFFFFF47
:100AB000050000000600000007000000C1C1C1C120
:100AC000C1C1C1C1C0C0C0C0C0C1C1C0C1C1C1C01D
